:100000000C9474030C949C030C949C030C949C031C
:100010000C949C030C949C030C949C030C949C03E4
:100020000C949C030C949C030C9448070C94BA0702
:100030000C949C030C949C030C949C030C949C03C4
:100040000C949C030C949C030C949C030C949C03B4
:100050000C949C030C949C030C949C030C947B0ABE
:100060000C949C030C949C030C949C030C949C0394
:100070000C949C030C949C030C949C030C949C0384
:100080000C949C030C949C030C949C030C949C0374
:100090000C949C030C949C030C949C030C949C0364
:1000A0000C949C030C949C030C949C03F0F89C8E81
:1000B0008783878E9CF8F00000FEFF030303030391
:1000C000070EFCF80000FEFF0303030303070EFC0A
:1000D000F80000FFFF00000000000000FFFF00002C
:1000E000FEFF8383838383C7EE7C380000F8FC0E19
:1000F00007030303070EFCF800003F7FE0C0808089
:10010000C0E07F3FFFFF01010101010101FFFF008E
:1001100000FFFF0C0C0C0C1C3E77E3C100007FFFBE
:10012000C0C0C0C0C0E0703F1F00001F3F70E0C0F3
:10013000C0C0E0703F1F00007FFFC1C1C1C1C1E36B
:10014000773E1C00001F3F70E0C0C0C0E0703F1F42
:10015000000000000001FFFF01000000D5F08D1439
:10016000A1C881CFD9F1AF2000080B000202020123
:10017000000904000001020200000524001001052E
:10018000240101010424020605240600010705815B
:100190000310004009040100020A000000070502E4
:1001A0000240000007058302400000040309041216
:1001B000010002EF020140412336800001010203E9
:1001C0000141726475696E6F204C4C43004172644A
:1001D00075696E6F204C656F6E6172646F0001020D
:1001E00004081020408000000000003E5B4F5B3E92
:1001F0003E6B4F6B3E1C3E7C3E1C183C7E3C181CEC
:10020000577D571C1C5E7F5E1C00183C1800FFE7E2
:10021000C3E7FF0018241800FFE7DBE7FF30483A88
:10022000060E2629792926407F050507407F0525EA
:100230003F5A3CE73C5A7F3E1C1C08081C1C3E7F72
:1002400014227F22145F5F005F5F06097F017F0039
:100250006689956A606060606094A2FFA294080459
:100260007E040810207E201008082A1C08081C2A7A
:1002700008081E101010100C1E0C1E0C30383E38D2
:1002800030060E3E0E06000000000000005F000079
:100290000007000700147F147F14242A7F2A1223EA
:1002A0001308646236495620500008070300001CFA
:1002B0002241000041221C002A1C7F1C2A08083E03
:1002C0000808008070300008080808080000606016
:1002D0000020100804023E5149453E00427F400084
:1002E00072494949462141494D331814127F10275C
:1002F000454545393C4A49493141211109073649AB
:10030000494936464949291E00001400000040347E
:100310000000000814224114141414140041221483
:100320000802015909063E415D594E7C1211127CAA
:100330007F494949363E414141227F4141413E7F0B
:10034000494949417F090909013E414151737F08EB
:1003500008087F00417F41002040413F017F081491
:1003600022417F404040407F021C027F7F040810F2
:100370007F3E4141413E7F090909063E4151215ED0
:100380007F09192946264949493203017F01033F64
:100390004040403F1F2040201F3F4038403F6314F3
:1003A00008146303047804036159494D43007F41F5
:1003B00041410204081020004141417F0402010232
:1003C0000440404040400003070800205454784057
:1003D0007F284444383844444428384444287F38EB
:1003E0005454541800087E090218A4A49C787F086D
:1003F00004047800447D40002040403D007F1028E8
:10040000440000417F40007C047804787C080404A8
:10041000783844444438FC1824241818242418FC40
:100420007C08040408485454542404043F44243CE5
:100430004040207C1C2040201C3C4030403C442854
:100440001028444C9090907C4464544C44000836EE
:10045000410000007700000041360800020102045C
:10046000023C2623263C1EA1A161123A4040207A7C
:1004700038545455592155557941215454784121C6
:100480005554784020545579400C1E5272123955FB
:1004900055555939545454593955545458000045F8
:1004A0007C410002457D420001457C40F029242921
:1004B000F0F0282528F07C545545002054547C54F5
:1004C0007C0A097F49324949493232484848323228
:1004D0004A4848303A4141217A3A42402078009DCA
:1004E000A0A07D39444444393D4040403D3C24FF78
:1004F0002424487E4943662B2FFC2F2BFF0929F625
:1005000020C0887E090320545479410000447D4175
:100510003048484A32384040227A007A0A0A727DCE
:100520000D19317D2629292F2826292929263048E9
:100530004D4020380808080808080808382F10C857
:10054000ACBA2F102834FA00007B000008142A14DB
:100550002222142A14089500220095AA005500AA08
:10056000AA55AA55AA000000FF00101010FF0014A1
:100570001414FF001010FF00FF1010F010F01414FE
:1005800014FC001414F700FF0000FF00FF1414F423
:1005900004FC141417101F10101F101F1414141F24
:1005A00000101010F0000000001F101010101F109D
:1005B000101010F010000000FF101010101010109C
:1005C0001010FF10000000FF140000FF00FF0000EB
:1005D0001F10170000FC04F414141710171414F45F
:1005E00004F40000FF00F714141414141414F7009A
:1005F000F7141414171410101F101F141414F414EB
:100600001010F010F000001F101F0000001F140059
:100610000000FC140000F010F01010FF10FF141484
:1006200014FF141010101F00000000F010FFFFFF57
:10063000FFFFF0F0F0F0F0FFFFFF0000000000FF10
:10064000FF0F0F0F0F0F38444438447C2A2A3E1402
:100650007E02020606027E027E026355494163382D
:1006600044443C04407E201E2006027E020299A5DE
:10067000E7A5991C2A492A1C4C7201724C304A4D3C
:100680004D303048784830BC625A463D3E49494971
:10069000007E0101017E2A2A2A2A2A44445F44441A
:1006A00040514A444040444A51400000FF0103E0A9
:1006B00080FF000008086B6B083612362436060FE0
:1006C000090F06000018180000001010003040FF4D
:1006D0000101001F01011E00191D1712003C3C3CC6
:1006E0003C0000000000581211241FBECFEFDAE0DA
:1006F000DEBFCDBF11E0A0E0B1E0E0EAF6E202C06B
:1007000005900D92A838B107D9F726E0A8E8B1E026
:1007100001C01D92AE3BB207E1F713E0C4E7D3E09E
:1007200004C02197FE010E944313C337D107C9F7C4
:100730000E94490C0C944E130C940000FC01809113
:100740003802811103C08FEF9FEF08959FB7F8948F
:1007500082E08093E9002091F20030E01216130647
:1007600014F421E030E02115310559F0289884E691
:10077000809337028091F10080838091F20088237A
:1007800019F09FBFC90108958BE68093E800F9CF67
:100790002FB7F89483E08093E9009091E800892FC7
:1007A000807295FF04C09091F20080E4891B2FBFF6
:1007B0000895CF93DF931F92CDB7DEB76983DC0135
:1007C000ED91FC910280F381E02D41E050E0BE010B
:1007D0006F5F7F4F09950F90DF91CF91089583E070
:1007E0008093E9008091F200882319F08AE38093D6
:1007F000E80008950E94C80390E00895CF93DF9326
:100800001F92CDB7DEB7FC018485958597FD05C0A5
:100810002FEF3FEF358724870BC0CE0101960E9452
:100820009E03019719F4898190E002C08FEF9FEF3A
:100830000F90DF91CF9108950F931F93CF93DF9384
:100840001F92CDB7DEB78C01FC018485958597FF9B
:100850000EC0CE0101960E949E03019719F42981D2
:1008600030E002C02FEF3FEFF80135872487F80111
:10087000848595850F90DF91CF911F910F910895F9
:100880008F929F92AF92BF92CF92DF92EF92FF92A0
:100890000F931F93CF93DF935C016B017A018091DB
:1008A0001101882309F45BC080913802882309F480
:1008B00056C08091360280FF05C08091E0008260C2
:1008C0008093E000E70110E00AEF83E0882E9AE3CE
:1008D000992E2097D9F10E94C80381110AC00150B6
:1008E00009F43DC061E070E080E090E00E94410AC0
:1008F000F0CF282F30E0C217D3070CF48C2F4FB75E
:10090000F8948092E9009091E80095FF1DC0282F8F
:1009100030E0C21BD30BF601982F915020F081914B
:100920008093F100FACFC20ED31E112319F09092DA
:10093000E80009C08091E80085FD06C09092E800BB
:1009400011E0209709F010E04FBFC3CF1111C3CFC2
:100950005D9884E6809335021E141F0444F081E004
:1009600090E0F5019383828380E090E001C0C701AD
:10097000DF91CF911F910F91FF90EF90DF90CF907B
:10098000BF90AF909F908F90089580E0E9E3F2E0F0
:1009900081118FEF0024819381938193819303943C
:1009A000D1F70895DF92EF92FF920F931F93CF93A9
:1009B000DF937C01D22E8B01040F111DEB0177FF19
:1009C0000EC0C0E0D0E00BC0C417D5077CF42D2DBD
:1009D000AE01B7018DE396E00E940C0B2196A801B1
:1009E000013411058CF340E450E0EECFDF91CF915C
:1009F0001F910F91FF90EF90DF9008954F925F92BB
:100A00006F927F928F929F92AF92BF92CF92DF921E
:100A1000EF92FF920F931F93CF93DF937C013B01E3
:100A2000D42F62507109242F45E00E94D204C5E002
:100A3000CC24C394D12C02E010E098E0492E2D2F55
:100A40004C2F4301801A910AB401C6018E0D9F1DDF
:100A50000E94D2042D2F542C5C1A452D5301AC1842
:100A6000BD08B501C8018E0D9F1D0E94D2042D2F17
:100A70004C2FB401C7018C199D090E94D2042D2F5F
:100A8000452DB501C701801B910B0E94D204C330D4
:100A900039F0015011098FEFC81AD80AC250CFCFD0
:100AA000DF91CF911F910F91FF90EF90DF90CF904A
:100AB000BF90AF909F908F907F906F905F904F907E
:100AC0000895FF920F931F93CF93DF93EC018B0157
:100AD000F42E42FF12C021E0AB01BC016F5F7F4FDB
:100AE0008DE396E00E940C0B21E0A8014F5F5F4F61
:100AF000BE018DE396E00E940C0BF1FE12C021E0D6
:100B0000A801BE016F5F7F4F8DE396E00E940C0B42
:100B100021E0A80141505109BE018DE396E00E94F9
:100B20000C0BF3FE12C021E0A8014F5F5F4FBE0126
:100B30008DE396E00E940C0B21E0A801BE016150FC
:100B400071098DE396E00E940C0BF0FE17C0A8011E
:100B50004150510921E0BE018DE396E00E940C0B4B
:100B6000BE016150710921E0A8018DE396E0DF919B
:100B7000CF911F910F91FF900C940C0BDF91CF91AF
:100B80001F910F91FF9008959C01240F311D1216A3
:100B9000130674F5803891055CF5FC0197FF02C0DF
:100BA000E0E0F0E02138310514F020E830E02E1BC1
:100BB000AB014770552781E001C0880F4A95EAF7DD
:100BC00077FF02C0695F7F4F93E0759567959A95AF
:100BD000E1F77695762F662777956795E60FF71FED
:100BE000E75CFD4F215020F09081982B9193FACF34
:100BF0000895009769F0FC0101900020E9F7319712
:100C0000AF01481B590BBC0189E396E00C94EA093B
:100C100080E090E008958F929F92AF92BF92CF9222
:100C2000DF92EF92FF920F931F93CF93DF93CDB795
:100C3000DEB7A1970FB6F894DEBF0FBECDBF6C0133
:100C4000990FEE08FF08F7FE31C0E0913906F091E8
:100C50003A060190F081E02D6DE289E396E0099576
:100C60008C0122273327A9012C193D094E095F0960
:100C700019A2CE0181967C019AE0892E912CA12C9B
:100C8000B12CCA01B901A50194010E942113605D34
:100C9000F70162937F01211531054105510589F75F
:100CA000CF010E94F905800F911F1DC0A701960179
:100CB00019A28E010F5D1F4F8AE0C82ED12CE12CA6
:100CC000F12CCA01B901A70196010E942113605DB0
:100CD000F80162938F01211531054105510589F70E
:100CE000CF010E94F905A1960FB6F894DEBF0FBEA2
:100CF000CDBFDF91CF911F910F91FF90EF90DF90CB
:100D0000CF90BF90AF909F908F90089580915B0699
:100D100081110DC082E08093570684E080935806CD
:100D200010925A061092590681E080935B0687E57F
:100D300096E00895FC018485958597FD0BC09FB7CB
:100D4000F89482E08093E9008091F2009FBF90E0E8
:100D5000019608959FB7F89482E08093E90080910E
:100D6000F2009FBF90E008954091B7065091B806F9
:100D70002091B5063091B60642175307B4F490910E
:100D8000E8009570E1F39091E80092FD19C080931E
:100D9000F1008091B7069091B80601968F7399275C
:100DA000892B19F48EEF8093E8008091B70690911B
:100DB000B80601969093B8068093B70681E008952F
:100DC00080E00895DF92EF92FF920F931F93CF93ED
:100DD000DF93D82E8A017B01E40EF51EEB01CE15C0
:100DE000DF0571F0D7FE03C0FE01849101C0888148
:100DF0000E94B40621968111F2CF8FEF9FEF01C0C0
:100E0000C801DF91CF911F910F91FF90EF90DF907C
:100E10000895615030F02091F100FC01208301968B
:100E2000F8CF289884E68093370208950F931F9394
:100E3000CF93DF931F92CDB7DEB782E0898342E480
:100E400050E069E671E080E80E94E2060E948606B2
:100E5000DC0112960D911C9113970115110569F093
:100E6000D801ED91FC910280F381E02DBE016F5F0E
:100E70007F4FC801099597FF07C089810F90DF91C7
:100E8000CF911F910F910895F80100851185E5CF4D
:100E90001F920F920FB60F9211248F939F93809100
:100EA000E1009091E100937F9093E10083FF0FC0F8
:100EB0001092E90091E09093EB001092EC0092E325
:100EC0009093ED001092380298E09093F00082FF2A
:100ED00020C093E09093E9009091F200992319F0DB
:100EE0009AE39093E80090913502992339F090911C
:100EF0003502915090933502992389F190913702F0
:100F0000992339F0909137029150909337029923A9
:100F100041F184FF10C08091E2008E7E8160809359
:100F2000E2008091E1008F7E8093E10080913602A3
:100F30008E7E806111C080FF16C08091E2008E7E9F
:100F400080618093E2008091E1008E7E8093E100D9
:100F5000809136028E7E81608093360204C05D9A55
:100F6000CDCF289AD6CF9F918F910F900FBE0F9023
:100F70001F9018951F920F920FB60F921124CF92C7
:100F8000DF92EF92FF920F931F932F933F934F9314
:100F90005F936F937F938F939F93AF93BF93EF93E1
:100FA000FF93CF93DF93CDB7DEB76C97DEBFCDBF96
:100FB0001092E9008091E80083FFEDC168E0CE0166
:100FC00045960E94090782EF8093E8008D8987FF8C
:100FD00005C09091E80090FFFCCF03C09EEF909376
:100FE000E800982F907609F0C6C09E892F89188D49
:100FF00091110CC0803829F48091B4068093F100DF
:1010000002C01092F1001092F10048C1422F50E04E
:10101000512B913051F4811141C14130510509F0FA
:101020003DC18091B4068D7F0BC0933061F4811176
:1010300035C14130510509F031C18091B40682605B
:101040008093B4062BC1953041F48091E80080FF75
:10105000FCCF20682093E30021C1963009F05FC0E7
:10106000EB8CFC8C1092E9001092B8061092B70637
:10107000123091F51092B6061092B5060E9416072E
:1010800099E0BE016F5F7F4FDB01E92F1D92EA956A
:10109000E9F799831A8391E09E8390EA98879AEF03
:1010A00099872091B7063091B806275F3F4F3C8360
:1010B0002B838D831092E9001092B8061092B70628
:1010C000F092B606E092B50649E050E080E00E945A
:1010D000E2060E941607E2C0F092B606E092B5065C
:1010E0000E948606DC011296ED90FC901397E114A5
:1010F000F10409F4C0C0D701ED91FC910480F581A1
:10110000E02DBE016B5E7F4FC7010995009719F076
:101110000CF0C4C0C7C0F701E084F184E8CF973079
:1011200009F4C0C0983021F481E08093F100B6C08A
:10113000993009F0B3C0837009F0B4C0EDE3F1E079
:1011400081E021E036E39081992361F08093E9000A
:101150002093EB0091919093EC003093ED008F5F22
:10116000873089F78EE78093EA001092EA008F8932
:101170008093380293C08B8D9C8D1092E900109261
:10118000B8061092B7069093B6068093B506898D7F
:10119000811156C08E899D89913A59F4813209F0A6
:1011A00081C047E050E06AE071E080E00E94E20622
:1011B00075C0913209F076C0833289F4888D90E051
:1011C000982F88272F89822BA0E0B0E0809312010E
:1011D00090931301A0931401B09315015FC0803266
:1011E00069F48091E80082FFFCCF67E08AE091E03B
:1011F0000E9409078BEF8093E80006C0823209F055
:101200004DC08F89809311018091B306882319F016
:10121000EEEFFAE002C0E0E0F8E080910A01909180
:101220000B01A0910C01B0910D01803B9440A105F0
:10123000B10509F07BC08091110180FF93C076C099
:101240000E948606DC0112960D911C9113970115E0
:10125000110541F1D801ED91FC910190F081E02D53
:10126000BE016B5E7F4FC8010995811117C0F8015F
:1012700000851185ECCF113009F44EC0133091F484
:101280008F89882309F445C0823081F440E860E109
:101290008DEC91E00E948D12882321F08EEF8093D7
:1012A000E80079C081E28093EB0075C0813029F4B9
:1012B00040E86BE081EC91E0EDCF833099F70E943C
:1012C0008606DC011296ED90FC9013978E010F5F5D
:1012D0001F4F6801E114F10479F0D701ED91FC9101
:1012E0000680F781E02DB801C7010995080F111D8F
:1012F000F701E084F184EECFD8011C92F601019051
:101300000020E9F73197BF016C197D0940E0C60163
:10131000C1CF6BEA71E002C06FEA71E0611571053F
:1013200009F2FB01449150E080E840CF0FB6F894F9
:10133000A8958091600088618093600010926000A1
:101340000FBEA895EE3F2AE0F20739F08091FE0A21
:101350009091FF0A91838083A1CF1092FF0A10928F
:10136000FE0A9CCFEE3F8AE0F80731F08081918140
:101370009093FF0A8093FE0A87E797E79183808323
:101380009BE088E10FB6F894A895809360000FBEAB
:101390009093600083CF6C960FB6F894DEBF0FBEBB
:1013A000CDBFDF91CF91FF91EF91BF91AF919F9111
:1013B0008F917F916F915F914F913F912F911F91ED
:1013C0000F91FF90EF90DF90CF900F900FBE0F9096
:1013D0001F901895CF92DF92EF92FF920F931F9379
:1013E000CF93DF936C017A018B01C0E0D0E0CE1582
:1013F000DF0589F0D8016D918D01D601ED91FC9149
:101400000190F081E02DC6010995892B11F47E0130
:1014100002C02196ECCFC701DF91CF911F910F91B0
:10142000FF90EF90DF90CF9008953FB7F8948091B0
:10143000BA069091BB06A091BC06B091BD0626B538
:10144000A89B05C02F3F19F00196A11DB11D3FBFFC
:10145000BA2FA92F982F8827820F911DA11DB11D8A
:10146000BC01CD0142E0660F771F881F991F4A9586
:10147000D1F708950895089580E090E008950E94BE
:1014800049138F929F92AF92BF92CF92DF92EF92C9
:10149000FF926B017C010E94150A4B015C01C11493
:1014A000D104E104F104F1F00E94150ADC01CB0142
:1014B00088199909AA09BB09883E9340A105B1057D
:1014C00070F321E0C21AD108E108F10888EE880E15
:1014D00083E0981EA11CB11CC114D104E104F104E5
:1014E00019F7DDCFFF90EF90DF90CF90BF90AF90D6
:1014F0009F908F9008951F920F920FB60F92112414
:101500002F933F938F939F93AF93BF9380918801C5
:1015100090918901A0918A01B0918B013091B90617
:1015200023E0230F2D3720F40196A11DB11D05C026
:1015300026E8230F0296A11DB11D2093B9068093C2
:10154000880190938901A0938A01B0938B018091C7
:10155000BA069091BB06A091BC06B091BD0601965B
:10156000A11DB11D8093BA069093BB06A093BC0643
:10157000B093BD06BF91AF919F918F913F912F91F5
:101580000F900FBE0F901F9018952D9A0895BC01D3
:1015900080E090E00C94410A8FB12CB193B130E01F
:1015A0002095309520743327A90123E05595479560
:1015B0002A95E1F7292F30E02095309520713327C7
:1015C0003595279535952795242B8095807F822BFF
:1015D000089583B7817F83BF83B7816083BF889578
:1015E00083B78E7F83BF08958EBD00000DB407FEC4
:1015F000FDCF0895809139028EBDEAE3F2E081913A
:101600000DB407FEFDCF8EBD86E0E933F807B9F7CC
:101610000DB407FEFDCF089560387105D0F4403455
:101620005105B8F4EEEDF1E080E1849FD001A0789F
:101630001124A60F4770E40FF11D8491A75CBD4FE4
:10164000222319F06C91862B03C080956C91862320
:101650008C9308952F923F924F925F926F927F9258
:101660008F929F92AF92BF92CF92DF92EF92FF92B2
:101670000F931F93CF93DF93CDB7DEB729970FB6A4
:10168000F894DEBF0FBECDBFFC016A3069F4248D33
:10169000808D918D38E0239F800D911D1124918FB5
:1016A000808F178A168AAAC06D3009F4A7C099875F
:1016B0008887F48C338C228C608C718C0689178916
:1016C00000381105C4F0A885B9855C962C915C970B
:1016D000422F50E056968D919C915797B6E02B9FE4
:1016E000800D911D1124E885F985978B868B258DBA
:1016F00021116EC083C0F0E46F16710424F7C80195
:1017000025E0F29E800D911D112418161906DCF6B5
:101710008F2D90E09C838B83C301A8E0FA9E800DFF
:10172000911D11241816190674F6B5E06B9FB001CF
:101730001124FB01EA51FE4FFA83E98330E08885EA
:10174000998504969E838D83E981FA81E4903530F2
:1017500009F4E12C430188E0482EE0FC02C0532C40
:1017600001C0522C51100BC0321009C0E6944A94AB
:101770008B819C81880E991E4110EFCF1BC06801A0
:101780008C2D801B8F1590F754018A2D88198F1589
:1017900068F4252DA501B6018D819E813F830E94AD
:1017A0000C0B9FEFA91AB90A3F81EFCFAFEFCA1A0E
:1017B000DA0AE6CF3F5FEB81FC810E0F1F1F8981A4
:1017C0009A8101969A838983363009F0BDCF7BCF09
:1017D0006AEF64039001659F300D112420583F4F3C
:1017E000281739075CF4A885B985ED91FC9111970C
:1017F0000190F081E02D6AE0CD01099581E090E053
:1018000029960FB6F894DEBF0FBECDBFDF91CF9102
:101810001F910F91FF90EF90DF90CF90BF90AF900E
:101820009F908F907F906F905F904F903F902F9000
:101830000895E091B001F091B10183E0EE0FFF1F38
:101840008A95E1F78091AE019091AF01E80FF91F01
:10185000E257FE4F108280918C0190918D0101968C
:1018600090938D0180938C0108952EE831E041E042
:1018700080E090E0F901E80FF91F4083019688307D
:101880009105C1F7285F3F4F81E02E3A380781F775
:101890000895789484B5826084BD84B5816084BDE8
:1018A00085B5826085BD85B5816085BD80916E00FE
:1018B000816080936E00109281008091810082602F
:1018C000809381008091810081608093810080916C
:1018D000800081608093800080919100826080937D
:1018E000910080919100816080939100809190009F
:1018F0008160809390008091C10084608093C100DA
:101900008091C10082608093C1008091C10081609C
:101910008093C1008091C30081608093C300809157
:10192000C00082608093C0008091C200816080937B
:10193000C20080917A00846080937A0080917A005E
:10194000826080937A0080917A00816080937A002F
:1019500080917A00806880937A0010923802109209
:10196000B406109236028091D70081608093D70030
:1019700080EA8093D80089B5806189BD89B582608D
:1019800089BD09B400FEFDCF61E070E080E090E029
:101990000E94410A8091D8008F7C80618093D8009A
:1019A0008091E000807F8093E0008091E1008E7E56
:1019B0008093E1008DE08093E200559A209AEEEF4B
:1019C000FFE7859194918B3F9C4D19F481E08093C2
:1019D000B30681EC80937C0085B1806F85B9249833
:1019E00084B1866E84B95E9A5F988AB1806D8AB937
:1019F000769A6E9881B3806F81BB899880B38D7021
:101A000080BB80E58CBD81E08DBD85E090E00E94CB
:101A1000C70A5F9A85E090E00E94C70A5E985C98CA
:101A2000CCE5D1E01C2F135FFE0184910E94F40AE3
:101A300021961C13F9CF5C9A81E88093640081E0C1
:101A400080936500C0E0D4E080E00E94F40A219712
:101A5000D9F70E94CC0A87FF1FC05C9885EA0E94D4
:101A6000F40A5C9A2E982F982D98809164008062D9
:101A7000809364000E94E90AFDCF2D980E94CC0A51
:101A80008478843871F00E94CC0A8471843131F1F9
:101A900088EC90E00E94C70A0E94CC0A82FDEDCF3C
:101AA0003AC00E94C50A88EC90E00E94C70A2F98AD
:101AB00082E090E00E940B138F3F29F06FEF82E0ED
:101AC00090E00E94131384EF91E00E94C70A2F9ABE
:101AD0000E94CC0A84788438D9F3D5CF0E94C50AF5
:101AE00088EC90E00E94C70A2E9882E090E00E9465
:101AF0000B13882329F060E082E090E00E9413132A
:101B000084EF91E00E94C70A2E9A0E94CC0A847149
:101B10008431D9F3BDCF0E94C50A82E090E00E94D3
:101B20000B13882331F03E9A3F9A81E08093B201F3
:101B300004C01092B2013E983F982E98CEEEDFEF8F
:101B400008E010E00E94CC0A86FF04C02E9A2F9A6B
:101B50002D9A8DC0CC3F2FEFD20719F42E9A2F98D3
:101B600005C0C831D10511F42F9A2D980E94C504E3
:101B7000C03F4FEFD40794F48DE396E00E94FA0A39
:101B80008BE190E00E94C70AC03F5FEFD50709F0E4
:101B900059C08AEF90E00E94C70A54C09E01D7FF47
:101BA00004C0222733272C1B3D0B27703327CE017F
:101BB000D7FD079673E0959587957A95E1F7D7FF5E
:101BC00005C00197B801621B730B9B017C01F69461
:101BD000FE2CEE24F794E79440E050E04801821A8E
:101BE000930AF701E058FF4F5F018F3FFFEF9F0718
:101BF00044F40196485A5F4F7501403B510589F7FF
:101C0000BBCFD701A353BD4F60E070E08F3FEFEF34
:101C10009E0709F40FC4FB01E40FF51FE455FF4FC5
:101C2000E4916D01CA18DB08CE0CDF1CF0E02F0137
:101C3000022E01C0440C0A94EAF7F601708047288E
:101C40004082F8C32196C931D10509F07BCF8CEBD6
:101C500092E00E94C70A0E94C50AE0913D06F091F9
:101C60003E060190F081E02D8DE396E0099582E338
:101C700090E00E94C70A0E94CC0A8111F8CF80E14F
:101C8000809344060E94350C2091AE013091AF0143
:101C9000E0E0F0E060E070E080E090E0843091050A
:101CA00019F17F0128E0E20EF11CA0E0B0E024E091
:101CB00030E0AD01460F571F8A010D501E4FE8015D
:101CC000398328834D545E4FEA01F982E882215F0F
:101CD0003F4F12962C37310561F70196605F7F4FB9
:101CE000379628E030E0DACF3093AF012093AE0191
:101CF0009093B1018093B0010E94C50410925006E8
:101D000010924F0680E190E0909352068093510626
:101D100082E08093550683E491E00E94F90581E01A
:101D20008093550680E290E09093500680934F0692
:101D300090935206809351068CE491E00E94F9053D
:101D40008DE591E00E94F9058DE396E00E94FA0A84
:101D500068EB7BE080E090E00E94410A222423941B
:101D6000312C4DE3442E512C2FB7F89480918801EB
:101D700090918901A0918A01B0918B012FBF409170
:101D8000490650914A0660914B0670914C0620918D
:101D90004D06222341F020914506821B80934E067A
:101DA00010924D063FC384179507A607B70738F46E
:101DB000481B423008F436C30E94E90A33C321E0CD
:101DC00020934D068093450690934606A0934706C0
:101DD000B093480620914406820F911DA11DB11DAC
:101DE0008093490690934A06A0934B06B0934C0605
:101DF0008091400690914106019690934106809310
:101E000040060E94C504109252061092510610928C
:101E1000500610924F068091330290913402892B24
:101E200051F0609108017091090141E08091060133
:101E30009091070108C0809104019091050141E053
:101E40006BE370E00A960E94FE041092B1011092BA
:101E5000B001C090B001D090B101C4E0CC16D10463
:101E60000CF0ACC01092AF011092AE01360133E01D
:101E7000660C771C3A95E1F7E090AE01F090AF0167
:101E800088E0E816F1040CF091C0F301EE0DFF1D9F
:101E9000DF01A257BE4F8C91882309F47FC0809147
:101EA000060190910701EE0FFF1FDF01AD50BE4FFD
:101EB000CD91DC91C817D90754F59E01235F3F4FA0
:101EC0002817390724F18091330290913402892B2D
:101ED000F1F02091080130910901ED54FE4F80810D
:101EE00091812817390739F4E1E0F0E0F0933402EA
:101EF000E09333020AC002962817390741F44FEFE6
:101F00005FEF50933402409333020E94190CF301A7
:101F1000EE0DFF1DEE0FFF1FED54FE4F00811181EE
:101F20005E015FEFA51AB50A0034110528F44AE0F6
:101F3000B801C5010E94C405B8016D5F7F4F6034D0
:101F4000710520F44AE0C5010E94C40548016FEF05
:101F5000861A960A21E042E0B401CE010E94D20422
:101F600021E042E0B401CE010B960E94D20441E090
:101F7000B401C5010E9461052A9642E0B401CE0178
:101F80000E9461050E5F1F4F44E0B801CE010E9420
:101F9000610548E0B801C5010E9461057FEFE71ABD
:101FA000F70AF092AF01E092AE0166CF9FEFC91A37
:101FB000D90AD092B101C092B0014BCF80918C016F
:101FC00090918D018097B1F50E94C50480E190E069
:101FD0009093500680934F06ECE0F0E0F0935206A9
:101FE000E093510682E08093550680E691E00E94DE
:101FF000F9058DE396E00E94FA0A81E08093550688
:1020000010928D0110928C0143E050E05093030137
:10201000409302010E94350C109234021092330258
:10202000509209014092080160ED77E080E090E075
:102030000E94410AC0910401D091050147E16EE37D
:1020400070E0CE010E94C40547E16FE370E0CE016D
:102050000E94C40521E042E06EE370E0CE010E94E0
:10206000D20421E042E06EE370E0CE0146960E9489
:10207000D20466E470E07093500660934F061092AD
:1020800052061092510689E691E00E94F90580916E
:102090008C0190918D010E940B06109250061092B7
:1020A0004F06109252061092510680E791E00E946E
:1020B000F90580910201909103010E940B060E9494
:1020C000CC0A85FF08C08091040190910501181683
:1020D00019060CF4CAC10E94CC0A86FF08C0809180
:1020E000040190910501893691050CF4C4C10E9448
:1020F000CC0A83FF07C08091330290913402892B70
:1021000009F4BFC10E94CC0A82FF2AC06CE271E0D0
:1021100080E090E00E94410A8AE190E090935006AE
:1021200080934F0688E290E0909352068093510688
:1021300082E08093550687E791E00E94F9058DE3E0
:1021400096E00E94FA0A81E0809355060E94CC0A2C
:1021500082FFFCCF6CE271E080E090E00E94410AD7
:10216000C0910601D0910701C330D10529F4309206
:1021700001012092000109C0CD37D10531F48FEF64
:102180009FEF90930101809300018091080190914D
:1021900009018730910539F4CFEFDFEFD093340296
:1021A000C0933302CFC0CD9709F0CCC080913302E9
:1021B00090913402892B09F4C5C0309234022092E8
:1021C000330280910401909105019C012550310951
:1021D000C217D3072CF04C968C179D070CF0B2C099
:1021E00080910201909103010197909303018093E4
:1021F0000201109234021092330240E06DE370E06D
:10220000CE010E94FE0421E04FE350E0BE018DE3C9
:1022100096E00E940C0B21E04BE350E0BE018DE301
:1022200096E00E940C0B21E04DE350E0BE016E5F92
:102230007F4F8DE396E00E940C0B21E04DE350E0D0
:10224000BE01625071098DE396E00E940C0BE12CF7
:10225000F12C02E010E0EFEFEE1AFE0A5801FDE368
:10226000AF0EB11C47018C0E9D1E21E0A501B401EB
:102270008DE396E00E940C0B6E01CE18DF0821E082
:10228000A501B6018DE396E00E940C0B5201A01A45
:10229000B10A21E0A501B4018DE396E00E940C0B88
:1022A00021E0A501B6018DE396E00E940C0B80E4CD
:1022B000A82EB12CA01AB10A48018C0E9D1E21E057
:1022C000A501B4018DE396E00E940C0B6E01C01ACB
:1022D000D10A21E0A501B6018DE396E00E940C0B26
:1022E00058012AE3A20EB11C21E0A501B4018DE33F
:1022F00096E00E940C0B21E0A501B6018DE396E06B
:102300000E940C0B0130110519F001E010E0A3CF81
:102310008DE396E00E94FA0A60E971E080E090E0C7
:102320000E94410A40E06DE370E0CE010E94FE048D
:102330008DE396E00E94FA0A60E971E080E090E0A7
:102340000E94410A809102019091030197FF36C0DB
:102350000E94C50447E050E05093500640934F065A
:102360006CE070E0709352066093510682E08093B7
:1023700055068EE791E00E94F9058DE396E00E94F4
:10238000FA0A81E08093550610928D0110928C011B
:1023900083E090E090930301809302010E94350C4A
:1023A00050920901409208011092340210923302B7
:1023B00060ED77E080E090E00E94410A80910001AA
:1023C000909101011816190634F48091060190913C
:1023D0000701019607C0892B49F080910601909171
:1023E00007010197909307018093060180913302C2
:1023F000909134021816190634F4809108019091D6
:102400000901019707C0892B49F08091080190913B
:102410000901019690930901809308018DE396E0EC
:102420000E94FA0A80E090E0892B09F49DCC0E947A
:10243000000097CC2115310581F0FB01E40FF51F59
:10244000E455FF4FE491F0E0082C02C0F595E795C4
:102450000A94E2F7DC90ED29EC936F5F7F4F1196C1
:102460006835710509F0D2CBC4CB02979093050172
:102470008093040130CE029690930501809304016D
:1024800036CE30923402209233028091080190912E
:10249000090101979093090180930801809104013B
:1024A00090910501079690930701809306012ACE2B
:1024B000E3E6F6E01382128288EE93E0A0E0B0E05B
:1024C00084839583A683B7838AE191E09183808397
:1024D0008FEF9FEF95878487E9E3F6E013821282FE
:1024E0001186128620E1238790878783108A118ABC
:1024F000128A138A148A8CE291E0918380838AE3A2
:1025000091E095838483178A168A118E108E81E05C
:10251000828F138E848F158E0895CF92DF92EF9263
:10252000FF920F931F93CF93DF931F92CDB7DEB728
:10253000182F062FE42E862F880F8E5F99830E9416
:10254000B40683E00E94B406F12EC12E9981D92EE3
:102550008C2D8F19801798F4F601E7FE02C0849144
:1025600001C080810E94B406182F80E00E94B4064A
:102570008123FFEFCF1ADF0A8111EACF01C081E08A
:102580000F90DF91CF911F910F91FF90EF90DF900F
:10259000CF9008950F931F93CF93DF93EC0181E0C9
:1025A00090E00E940B1380FF2EC08AE090E00E9412
:1025B0000B139FEF980F9E3F30F522E330E03F8BE7
:1025C0002E8B28E330E0398F288F0BE010E0E88174
:1025D000F9810190F081E02D682FCE010995C801A5
:1025E0000E940B130F5F1F4F0131110581F7CE01C0
:1025F00004960E94FA0A88EE93E0DF91CF911F9132
:102600000F910C94C70ADF91CF911F910F910895FC
:1026100004970C94CA12F999FECF92BD81BDF89A25
:10262000992780B50895262FF999FECF1FBA92BD3C
:1026300081BD20BD0FB6F894FA9AF99A0FBE0196A3
:102640000895A1E21A2EAA1BBB1BFD010DC0AA1FF3
:10265000BB1FEE1FFF1FA217B307E407F50720F00B
:10266000A21BB30BE40BF50B661F771F881F991F86
:102670001A9469F760957095809590959B01AC01CF
:10268000BD01CF010895EE0FFF1F0590F491E02DDD
:10269000099481E090E0F8940C944E13F894FFCFE5
:1026A00001000300400040003D0000E10000000088
:1026B0000000FFFFFFFF00000000D9034004FA0301
:1026C000EF039A06FE031C04000000002A0BEA092F
:1026D0003C0A3B0ACA12FCFF0000081300C18081BB
:1026E000000000427265616B6F757400627920565C
:1026F0006C616420546F6D6F69616761000D0A0041
:10270000596F7520576F6E210053636F72653A00E1
:102710004C697665733A0050617573656400474192
:082720004D45204F56455200C3
:00000001FF
